:100000000C941A020C9461020C9461020C9461022B
:100010000C9461020C9461020C9461020C946102D4
:100020000C9461020C9461020C9440240C941425ED
:100030000C948A1F0C9461020C9461020C9461026E
:100040000C9461020C9461020C9461020C946102A4
:100050000C9461020C94E11F0C9461020C946102F7
:100060000C9461020C9461020C9461020C94610284
:100070000C9461020C9461020C9461020C94610274
:100080000C9461020C9461020C9461020C94610264
:100090000C9461020C9461020C9461020C94610254
:1000A0000C9461020C9461020C94610224002500FE
:1000B000260021002200230001511F002000A8007B
:1000C000000000000100C35C005CC45CD65CC55C41
:1000D0000100C75CC65C0100000000001E0F0500A7
:1000E000047F3F1F643214643214783C1E1E140ACD
:1000F000052223252628292A2C2D2F303233353668
:10010000383A3B3D3E4042434547494A4C4E5051A8
:10011000535557595A5C5E6062646668696B6D6FCF
:1001200071737577797B7D7F81838587898A8C8ED2
:1001300090929496989A9C9E9FA1A3A5A7A8AAACDA
:10014000AEAFB1B3B4B6B8B9BBBCBEBFC1C2C3C514
:10015000C6C7C9CACBCCCDCED0D1D2D2D3D4D5D6B6
:10016000D7D7D8D9D9DADADBDBDBDCDCDCDCDCDDE9
:10017000DDDDDDDCDCDCDCDCDBDBDBDADAD9D9D8CD
:10018000D7D7D6D5D4D3D2D2D1D0CECDCCCBCAC965
:10019000C7C6C5C3C2C1BFBEBCBBB9B8B6B4B3B194
:1001A000AFAEACAAA8A7A5A3A19F9E9C9A9896942F
:1001B00092908E8C8A89878583817F7D7B79777504
:1001C00073716F6D6B6968666462605E5C5A5957E3
:1001D000555351504E4C4A4947454342403E3D3BA2
:1001E0003A3836353332302F2D2C2A29282625232C
:1001F00022FFAA7F55400001010101010101010117
:1002000002020202020202020203030303030303C7
:100210000304040404040404050505050506060694
:100220000606070707070708080808090909090A51
:100230000A0A0B0B0B0C0C0C0D0D0D0E0E0E0F0FF6
:100240000F10101111111212131314141515161684
:100250001717181819191A1A1B1B1C1D1D1E1E1FF3
:100260002020212222232424252626272829292A42
:100270002B2C2D2D2E2F303132323334353637386A
:10028000393A3B3C3D3E3F40414243444546474866
:10029000494A4C4D4E4F50515354555658595A5B3C
:1002A0005D5E5F616264656668696B6C6D6F7072DC
:1002B000737577787A7B7D7E8082838587888A8C48
:1002C0008E8F91939596989A9C9EA0A2A3A5A7A97C
:1002D000ABADAFB1B3B5B7BABCBEC0C2C4C6C9CB73
:1002E000CDCFD1D4D6D8DBDDDFE2E4E7E9EBEEF029
:1002F000F3F5F8FAFDFF18033300780033005F00D0
:10030000310075005F007400650073007400000028
:10031000160341006C00650078002000420069006F
:100320006E006F00730000000403090409023B0023
:10033000020100A0FA0904000001030101000921E3
:10034000110100012240000705810308000A090489
:1003500001000103000000092111010001227B00BE
:100360000705820320000A12011001000000083472
:1003700012785600000102000105010902A1018561
:10038000020901A100050919012908150025019597
:1003900008750181020501093009311581257F9514
:1003A000027508810609381581257F950175088138
:1003B00006050C0A38021581257F9501750881060E
:1003C000C0C005010980A101850319012AB70015E4
:1003D0000126B700950175108100C0050C0901A127
:1003E00001850419012AA002150126A002950175B4
:1003F000108100C005010906A101050719E029E7E0
:100400001500250195087501810295017508810186
:100410000507190029FF150026FF009506750881BC
:1004200000050819012905950575019102950175C9
:10043000039101C011241FBECFEFDAE0DEBFCDBFB4
:1004400004B603FE27C08091C1029091C202A09120
:10045000C302B091C4028730904BA740B04BD1F497
:100460001092C1021092C2021092C3021092C402F2
:1004700014BE84B7877F84BF0FB6F894A895809187
:100480006000886180936000109260000FBEE0E021
:10049000F8E3099511E0A0E0B1E0E6EBF0E502C079
:1004A00005900D92A03CB107D9F722E0A0ECB1E095
:1004B00001C01D92A13CB207E1F70E947C210C947F
:1004C00031280C94000081E0089581E008950C9497
:1004D000650208950C9469021F93CF93DF9300D0B7
:1004E00000D00F92CDB7DEB749835A836B8330912A
:1004F000220289819A8131111DC06623B9F022231D
:10050000A9F00E94BE1C182F682F89819A810E9431
:10051000691C69817A81812F0F900F900F900F9045
:100520000F90DF91CF911F910C944C030E94961C69
:10053000182FEFCF0E94BE1C69817A81EDCFFC019C
:10054000262F408151816281738184810C946C02D9
:10055000CF93DF93EC0160E00E949F02BE01DF9128
:10056000CF910C946A020E9472050E943B030C9486
:1005700097050C949A0508950E94D3170E94BB0218
:100580002FEF84E39CE0215080409040E1F700C0D1
:1005900000000C9405200F931F93CF93DF938C01E1
:1005A00061E00E949F02EC01B8010E94670288236B
:1005B000D9F1B801CE010E94B0118823A9F1B80188
:1005C000CE010E940212882379F1B801CE010E9467
:1005D0002513882349F1B801CE010E944B108823CE
:1005E00019F1F8018281882361F0CB35FDE5DF0741
:1005F00021F170F4C115ECE5DE07A1F0CF3DDC453B
:10060000C9F0C801DF91CF911F910F910C94630243
:10061000CC358DE5D807A1F0CD35DD4591F70E94A9
:10062000651DEFCF0E94BC0280E0DF91CF911F914A
:100630000F9108950E94DE1EF7CF0E946E1DE1CF3C
:100640000E94711DDECF08950C94230381E008956C
:10065000CF93C82F0E942603882339F0C095C0FF8E
:1006600006C0289AC1FF05C02F9ACF9108952898F7
:10067000F9CF2F98FACF209A289A279A2F9A08957F
:10068000CF93C82F0E9424038C2FCF910C94280362
:1006900090E080E008950895972F70E023E0929F06
:1006A000600D711D1124FB019CE0899FE00DF11D7F
:1006B0001124EE0FFF1FE455FF4F8591949108958B
:1006C000FC01EE0FFF1FE452FF4F859194910895B6
:1006D000CF93DF930E944C030E947D04EC018115AF
:1006E00020E5920708F042C0811530E4930708F036
:1006F000BDC0883E910528F5803E910508F09DC05B
:10070000883A910588F4853A910508F08FC08130C8
:10071000910509F492C0009709F48FC0049708F07E
:100720008CC0D0E0C0E089C08F3B910508F489C03F
:10073000805C9109C03CD105A0F30E946003EC01EC
:100740007CC08115904250F4C11581E0D80708F0B3
:1007500074C0CD3ED10528F3D0656FC0C11590E3BC
:10076000D90708F079C0CE019F70E7CF811525E544
:10077000920758F5811534E5930708F0A6C0811556
:1007800042E5940750F4C11581E5D80708F471C01B
:10079000DC2FCC27C16FD06A50C0982F96959695C4
:1007A0009E0123703327C115D34508F07FC0C1E0F7
:1007B000D0E002C0CC0FDD1F2A95E2F720E2929F25
:1007C000C0011124C82BD92B6FC0C11589E5D807EA
:1007D000A8F4C11598E5D90708F07CC0C11526E535
:1007E000D20708F09ECF8C2F0E941405C82FD0E0AE
:1007F000DC2FCC27CC27DF71D0621FC0C1153AE5B2
:10080000D30708F46CC0CE0190568115904208F0D1
:1008100088CF8D2F8F710E94140590E0982F882724
:1008200088279F719C012C2BE901E6CFC55AD0E0A7
:10083000C65ADE4FC881D0E0D064CE01DF91CF919F
:100840000895C85AD0E0CC0FDD1FC45DDE4F09907B
:10085000D881C02DD464F1CFCE019927D3FF03C036
:10086000EC01D86CEACFEC01D06CE7CFDF70D06A36
:10087000E4CFCE01E4E096958795EA95E1F78370A1
:100880002C2F26952695237090E2299F9001112404
:10089000382B8C2F8370C1E0D0E002C0CC0FDD1F5D
:1008A0008A95E2F7C22BD32BDC68C7CFC1E0D0E03A
:1008B00002C0CC0FDD1F2A95E2F730E2939FC00102
:1008C0001124C82BD92BDA68B8CFD82FCC27C46F06
:1008D000D06AB3CFDC2FCC27C06FD06AAECF8C2FBD
:1008E0008F700E94140534E0D695C7953A95E1F7CC
:1008F000CF709C2FEC01D069A0CF82389105B1F167
:10090000B0F48133910509F475C048F4893291053A
:1009100009F469C08A32910509F473C008958533DA
:10092000910509F459C08933910501F10895833E79
:100930009105A9F138F4803E9105F9F0823E9105C8
:1009400049F10895863E9105A9F1873E9105C9F1C7
:10095000843E910519F52091870221FF1FC08091E7
:10096000860284FD14C087EE90E0089520918602EF
:100970002370A1F080EE90E008952091860220FD82
:1009800047C03091870230FF09C024FF44C090E087
:1009900080E004C02091860222FDF7CF08952091C7
:1009A000860222FD3BC03091870230FDE3CF24FF59
:1009B000F5CFEDCF2091860223FFF0CF24FDE7CFC6
:1009C000D2CF2091860223FD2CC03091870231FFC7
:1009D000EECF84EE90E008952091860225FFDECFD1
:1009E00089E290E008952091860225FFD7CF85E324
:1009F00090E008952091860226FFD0CF8AE290E011
:100A000008952091860226FFC9CF81E390E00895E2
:100A100089E390E0089583EE90E0089582EE90E0FF
:100A2000089586EE90E008959091860292FF06C0A8
:100A3000282F28712830F9F4877F846093FF06C03F
:100A4000282F28712831F1F4877E84612091870254
:100A500020FF06C0382F38713830D9F4877F816085
:100A600021FF06C0282F28712831D1F4877E8161AB
:100A700094FD877E0895282F24712430F9F68B7F0A
:100A80008860DCCF282F2471243101F78B7E8861A8
:100A9000DDCF382F3171313019F78E7F8860E0CF8C
:100AA000282F2171213121F78E7E8861E1CF0C94AE
:100AB000331E0E94ED052FEF86E791E02150804024
:100AC0009040E1F700C000000E94ED0580E00E9428
:100AD0009C0580FF04C00E9457050C9405200895D2
:100AE0000C9459050E94391E811102C00E94DE1E1D
:100AF0000E94441E80937A020E944C1E90938702AB
:100B0000809386020E9470050E94481E682F70E044
:100B100090E080E00E946B1B60916502709166021C
:100B200080916702909168020C94A51B08950C9423
:100B3000960508950C949905E82FF0E0E457FD4FD1
:100B400080810895089580EA8A95F1F7089500C09C
:100B500008950C94A305F894E82FE295EF70F0E067
:100B600031A1282F2F7081E090E001C0880F2A95D5
:100B7000EAF7982F9095932391A392A1892B82A3B2
:100B80007894089584EF0E94AB0585EF0E94AB0531
:100B900086EF0E94AB0586E60E94AB0582EC0E94C0
:100BA000AB0581EF0E94AB0580EF0E94AB05A8E882
:100BB000B2E01C92ECE8F2E0108211961C921197C0
:100BC000118212961C921297128213961C92138213
:100BD00084E00E9464060C94B302CF92DF92EF92FD
:100BE000FF920F931F93CF93DF93C0E6D1E008E805
:100BF00012E0D12CEE24E394F12C8991F894E82FA3
:100C0000E295EF70F0E021A18F70A70102C0440FC0
:100C1000551F8A95E2F7CA01922F982B91A392A1B2
:100C20008095892382A378940E94A705EDE5F1E0E1
:100C300030E020E0C12C4191A42FA295AF70B0E02C
:100C400090968C9190E04F7002C0959587954A954B
:100C5000E2F780FD35C08E2D022E01C0880F0A9468
:100C6000EAF7C82A2F5F3F4F2330310521F7FE01F5
:100C7000319780810E94AB050E94A905F80180810F
:100C8000C81601F1C08281E0D82A0F5F1F4FF1E042
:100C9000C436DF0709F0B1CF2D2D44E06CE872E0D7
:100CA00088E892E00E9465060E94B9028D2DDF91CE
:100CB000CF911F910F91FF90EF90DF90CF9008950B
:100CC00080E0CFCF80E0E0CF0895FF920F931F9395
:100CD000CF93DF93F82E092F162FD72FC42F22235F
:100CE00049F081E08093C4010E94BA1F9093C30130
:100CF0008093C2018091C4018823A1F08091C20138
:100D00009091C3010E94D21F069760F0EF2DF02F43
:100D1000A12FBD2FCE0FDF2FD11DEC17FD0741F402
:100D20001092C401DF91CF911F910F91FF90089510
:100D300081918D93F2CF8091CB0180FF12C06091A1
:100D4000090185E0689FB001112475956795759537
:100D5000679560387105A8F561157105A1F1862FB9
:100D6000089581FF09C06091090185E0689FB00185
:100D7000112475956795EDCF6091090182FD0AC038
:100D80008091CA018823D1F09091080160910901F6
:100D9000891728F085E0689FB0011124DACF869F7B
:100DA000B001112485E0869F9001879F300D1124AA
:100DB000692F70E0C9010E94F426CBCF65E070E096
:100DC000CECF8FE7089581E008958091CB0180FF19
:100DD0000CC06091050170E07595679575956795F4
:100DE0006115710549F1862F089581FF06C0609154
:100DF000050170E075956795F3CF6091050182FD5F
:100E00000BC09091C9019923A1F0609104018091D8
:100E10000501961738F0682F70E06038710500F30F
:100E20008FE70895899FC001112470E00E94F42685
:100E3000F4CF61E070E0D7CF81E008958D3E31F4CA
:100E40000E949B0681958093CF0108958E3E19F4F0
:100E50000E949B06F8CF8F3E31F40E949B0681953D
:100E60008093CE010895803F19F40E949B06F8CF2D
:100E7000893F29F40E94E5068093D00108958A3FB6
:100E800021F40E94E5068195F7CF8B3F31F40E9453
:100E9000E50681958093D10108958C3F19F40E9455
:100EA000E506F8CF9FE0980F983070F4815F990BBA
:100EB00021E030E001C0220F8A95EAF78091CD0150
:100EC000822B8093CD0108958D3F31F48091CB0129
:100ED00081608093CB0108958E3F21F48091CB01F6
:100EE0008260F7CF8F3FB9F78091CB018460F1CF5B
:100EF0004091CE018D3E59F48091CF0187FF0DC006
:100F00001092CF0141110BC01092CA0108C08E3E51
:100F100081F48091CF0118169CF3442381F08091D5
:100F2000D0019091D101892B09F05AC01092C901CA
:100F300008958F3E49F447FFF0CF1092CE01809183
:100F4000CF018111ECCFE0CF803F19F41416ACF340
:100F5000E4CF9091D001893F29F41916F4F610924C
:100F6000D001DBCF8A3F19F497FFD7CFF8CF90910C
:100F7000D1018B3F29F497FFD0CF1092D101CDCF73
:100F80008C3F19F41916CCF3C8CF9FE0980F983016
:100F900090F4815F990B21E030E0B90102C0660F47
:100FA000771F8A95E2F7CB0180959091CD01892337
:100FB0008093CD01B2CF8D3F31F48091CB018E7FF4
:100FC0008093CB01AACF8E3F21F48091CB018D7FFE
:100FD000F7CF8F3F09F0A1CF8091CB018B7FF0CF6E
:100FE00008950E94BA1F9C019091CE018091CF017B
:100FF000982B21F03093C8012093C7019091D00124
:101000008091D101982B21F03093C6012093C50126
:101010008CEC91E00C946B13EF92FF920F931F9363
:10102000CF93DF9300D000D000D0CDB7DEB786E0FD
:10103000ECECF1E0DE01119601900D928A95E1F75A
:10104000E090CE01F090CF010091D0011091D1013C
:101050001092CE011092CF011092D0011092D101C6
:101060008E2D8F2991F08091C7019091C8010E9427
:10107000D21FAC019091CA01992309F43FC080911D
:101080000A018417150608F447C0802F812B91F0C0
:101090008091C5019091C6010E94D21FAC01909130
:1010A000C901992309F477C08091060184171506B8
:1010B00008F47FC08091CE019091CF01892B90914F
:1010C000D001892B9091D101892B11F00E94F10759
:1010D00086E0FE013196ACECB1E001900D928A956C
:1010E000E1F726960FB6F894DEBF0FBECDBFDF91B5
:1010F000CF911F910F91FF90EF90089520910B01D8
:101100008AE0289F900111242417350708F0BDCFED
:101110009F5F9093CA0102C09F3FD1F7EE2059F024
:101120000E949B069FEF1E140CF491E0899F802D76
:1011300011248093CE01FF2059F00E949B069FEF5F
:101140001F140CF491E0899F802D11248093CF010E
:101150003091CE01332309F498CF2091CF0122237F
:1011600009F493CF45EB3403C0011124992359F0BE
:101170009093CE0145EB240390011124332339F0E1
:101180003093CF0182CF81E08093CE01F3CF81E015
:101190008093CF017ACF209107018AE0289F9001A8
:1011A00011242417350708F085CF9F5F9093C9015C
:1011B00002C09F3FD1F7002359F00E94E5069FEF40
:1011C00010160CF491E0899F802D11248093D0019A
:1011D000112359F00E94E5069FEF11160CF491E0DF
:1011E000899F802D11248093D1013091D001332328
:1011F00009F460CF2091D101222309F45BCF45EBA4
:101200003403C0011124992359F09093D00145EB88
:10121000240390011124332339F03093D1014ACFB4
:1012200081E08093D001F3CF81E08093D10142CF60
:1012300086E0ECECF1E0DF011D928A95E9F710926F
:10124000CA011092C9011092CB010895EF92FF924A
:101250000F931F93CF93DF93EB01E82FD11110C0B1
:10126000442321F0F0E0EA50FE4FE4916E2F7E2FF0
:101270008E2FDF91CF911F910F91FF90EF900895E6
:101280000D2F10E0282F30E0442329F02A503E4F44
:10129000F901249130E0F6E0CF9FC0011124EFEF77
:1012A000F0E0BF010E94E026AB018C2F90E0880F98
:1012B000991FA5E5A49FB001A59F700D1124861B61
:1012C000970B982F990F980FBF01601B710B629FAE
:1012D000D001639FB00D729FB00D11248B2F9D9F85
:1012E000B0011124672F7727EF01C61BD70BBE0172
:1012F000629FE001639FD00D729FD00D11247F018A
:10130000E91AF108E09EB001E19E700DF09E700DAB
:101310001124672F7727E61BF70BE29F8001E39FDD
:10132000100DF29F100D1124E12F722F4230510544
:1013300099F048F44115510569F04130510581F0AB
:10134000EB2F8D2F07C04430510569F080F04630F7
:101350005105B1F76E2F8DCFE22F7B2F812FFACF62
:10136000E22F7D2FF7CFEB2F822F712FF3CF7B2F23
:10137000822FED2FEFCF41E00C94260908950C94B5
:10138000BB09CF93DF93762FE901682F842F0E944A
:10139000BF09798368838A83DF91CF9108954138AB
:1013A00008F040E80C94C10980919002982F9E7F2C
:1013B00061F4817082608093900280919302813801
:1013C00018F080E88093930208958635B0F3817019
:1013D0008465F1CF88E090E00C94D227CF92DF9221
:1013E000EF92FF926B017C010E94D409B701A60124
:1013F00088E090E0FF90EF90DF90CF900C94F02782
:10140000E0E9F2E087E4808385E581838FEF8283E2
:1014100080E88383148260817181828193810C943E
:10142000EE098091900280FF02C08695089580E0C9
:10143000089590919402933018F49F5F90939402D2
:10144000882351F0609190027091910280919202F4
:10145000909193020C94EE09089581E00C94190A7E
:1014600090919402992319F09150909394028823BB
:1014700051F060919002709191028091920290914E
:1014800093020C94EE09089581E00C94300A70E008
:101490000C941811609110018091900280FF0AC095
:1014A00080910F0123E0829FC00111248B569D4F34
:1014B0000C94470A809111019091120123E0829FC0
:1014C000F0011124EB56FD4F891750F7118210825D
:1014D00012828F5F3396F8CF9091900290FF14C0E4
:1014E000909111012091120133E0939FF00111249A
:1014F000EB56FD4F921710F00C944A0A81836083DB
:1015000042839F5F3396F6CF0895CF93DF9300D049
:101510000F92CDB7DEB79091900290FF0AC09E0166
:101520002F5F3F4F0E94CF094B8169818A810E94C2
:101530006C0A0F900F900F90DF91CF910895CF9389
:10154000DF93EC01EC81F0E0EF50FF4F4491E0E9D4
:10155000F2E0628181810E94850A8C818F5F8C8399
:10156000DF91CF910895CF93DF93EC01E0E9F2E0B2
:10157000438162818C810E94850A8C818F5F8C837C
:10158000DF91CF9108950F931F93CF93DF9300D0F6
:101590000F92CDB7DEB78C018091D20181110AC0C4
:1015A0009E012F5F3F4F40E86FEF0E94CF098A8175
:1015B0008093D201F8016481613069F08091D20199
:1015C00040E0662361F040E0623011F44091D201C6
:1015D00080E060E004C06091D20140E080E00E94C1
:1015E0006C0AF801848190E0019663E070E00E944B
:1015F000F42684830F900F900F90DF91CF911F916D
:101600000F910895AF92BF92CF92DF92EF92FF9227
:101610000F931F93CF93DF9300D00F92CDB7DEB718
:10162000182FF62E042FE22E9091900290FF29C0E1
:10163000E92FE695AE2FB0E0AC59BE4F8C91809368
:1016400009029E7F923059F59E012F5F3F4F812FF7
:101650000E94CF094B8169818A810E946C0A109394
:101660009102F092920200939302EE2051F0609169
:1016700090027091910280919202909193020E9447
:10168000EE090F900F900F90DF91CF911F910F9166
:10169000FF90EF90DF90CF90BF90AF900895823091
:1016A00019F400919302DBCF863019F41091910266
:1016B000D6CF8930D9F3893191F6E9518E2F8170D7
:1016C000D82EE695F0E0EF50FE4FA590B490C12CD7
:1016D000BB2460911301C61618F00E944A0ABFCFBE
:1016E0002C2D30E0A29EC001A39E900DB29E900DC5
:1016F000112470E00E94E026812FD11013C0860FC4
:1017000040911101420F532F511D9A01220F331F97
:10171000240F351F2B563D4F402F6F2D0E94CF09B0
:10172000C394D7CF861BECCFE0E9F2E09181282F5C
:101730004381628188E0890F0C94020B81E00C9454
:10174000940BE0E9F2E09181282F4381628188EFD8
:10175000890F0C94020B81E00C94A10BE0E9F2E0FC
:10176000628128E0620F08F46FEF282F43818181A6
:101770000C94020B81E00C94AE0BE0E9F2E0628184
:1017800028E0621B08F460E0282F438181810C94DB
:10179000020B81E00C94BD0BE0E9F2E0438128E00C
:1017A000420F08F44FEF282F628181810C94020BC5
:1017B00081E00C94CC0BE0E9F2E0438128E0421B8D
:1017C00008F440E0282F628181810C94020B81E0B3
:1017D0000C94DB0B20E00C94020BEF92FF921F9312
:1017E000CF93DF93EC0110E0EE24EA94F12C6091AA
:1017F0001301161770F00E944A0A9A818C8190FF9B
:1018000027C08F5F8C83DF91CF911F91FF90EF9066
:10181000089520911101422F410F5527551FCA01EC
:101820009A01220F331F280F391F2B563D4F70E0AE
:10183000C7010E94F426962F8C81409193026091FB
:101840009202199F800D11240E94CF091F5FCFCFF4
:101850008150D8CFAF92BF92CF92DF92EF92FF929A
:101860000F931F93CF93DF93FC0182810FEF80FFD3
:1018700001E010E049E0A42E809113011817C8F090
:101880000E944A0A8091D401013009F055C08111AB
:1018900002C08091130181508093D401DF91CF91D8
:1018A0001F910F91FF90EF90DF90CF90BF90AF907E
:1018B0000895C0911101C12ED12CCC0DDD2DD11D6B
:1018C000CE01880F991FC80FD91FCB56DD4F198243
:1018D00018821A8234E0E32EF12CB12C8091D401CD
:1018E0008B0D8A301CF16A2D0E94D226892F082E7A
:1018F000000C990BC816D90691F4809193028E9D25
:10190000A0018F9D500D11245595479555954795EC
:101910009E0160919202809191020E94CF09B00EC7
:10192000F1E0EF1AF108D1F61F5FA6CF87FFDFCFF6
:1019300090911301890FDBCF90E001966091130124
:1019400070E00E94F426A8CF0F931F93CF93DF93EC
:10195000809111019091120123E0829FF0011124E6
:10196000EB56FD4F891740F1C0E0D3E060911301C1
:10197000C61740F10E944A0A20910D018091D301BF
:10198000820F8093D30190910E01920F90930E01DC
:10199000191654F4082E000C990B40911301415074
:1019A000550B841795071CF0219520930D01DF91AD
:1019B000CF911F910F9108951182108212828F5F33
:1019C0003396D0CF0C2F10E070E0C8010E94F426AF
:1019D00020911101820F482F50E02091D301022E57
:1019E000000C330B02171307BCF020910E01022EDE
:1019F000000C330B201731077CF08D9F90011124D0
:101A00002B563D4F4091930260919202809191023A
:101A10000E94CF09CF5FAACFFA01EE0FFF1FE40F9C
:101A2000F51FEB56FD4F118210821282F3CF8F9279
:101A30009F92AF92BF92CF92DF92EF92FF920F935D
:101A40001F93CF93DF93EC014C81042F10E098019A
:101A5000D8010E9438279B01AC010E944E274B0100
:101A60005C01E0E2F0E0E01BF10BA5E5B0E0AC01C9
:101A70009B010E944E276B017C019F01DF010E94A8
:101A800030279B01AC010E9459279B01AC01280D16
:101A9000391D4A1D5B1DC701B6010E940827F22EA1
:101AA000822F90E039E23F1560F143E0249F9001DE
:101AB000112435952795122F109500E085E5E82E25
:101AC000EF1880911301081758F10E944A0A9C816F
:101AD00081E0992319F0903219F48FEF80930C0173
:101AE00080910C01890F8C83DF91CF911F910F9111
:101AF000FF90EF90DF90CF90BF90AF909F908F902E
:101B0000089525E530E0B901681B790B9B01220F90
:101B1000331F260F371F37FFCCCF2F5F3F4FC9CF63
:101B20008E2D01FD8F2D20911101622F600F7727DF
:101B3000771F9B01220F331F260F371F2B563D4F58
:101B4000412F609192020E94CF090F5FBACF0F938D
:101B50001F93CF93DF93EC0110E000E0909113010D
:101B60009017110609F06CF40E944A0A8C8190E0EB
:101B70000196817099278C83DF91CF911F910F91EE
:101B8000089520911101A801420F511D9A01220FC1
:101B9000331F240F351F2B563D4F4C81609192020D
:101BA0008091910296959017110651F04CF04423C4
:101BB00049F0409193020E94CF090F5F1F4FCECF93
:101BC0004423B9F340E0F7CF4F925F926F927F9238
:101BD0008F929F92AF92BF92CF92DF92EF92FF923D
:101BE0000F931F93CF93DF93FC016280448081E0C9
:101BF0008483E1EFF0E07490E0E7F1E0E491812C80
:101C000075E0972EF2E0CF2EDD24D394AA24AA9477
:101C1000B12C55245A94E7190E2F10E0809113012E
:101C2000881690F0DF91CF911F910F91FF90EF9068
:101C3000DF90CF90BF90AF909F908F907F906F90EC
:101C40005F904F900C944A0AE82CF12C82E08615A4
:101C500068F09E9CF0019F9CF00D1124EB52FE4F0A
:101C6000809191028083809192028183411023C0F0
:101C70009E9CF0019F9CF00D1124EB52FE4F1382AD
:101C8000128220911101C701820F911D9C01220F28
:101C9000331F280F391F2B563D4F9E9CF0019F9CF0
:101CA000F00D1124EB52FE4F4281618180810E9430
:101CB000CF098394B3CF9E9CE0019F9CD00D11244B
:101CC000CB52DE4F8B818823E9F081508B83859D39
:101CD000C00111246C8170E00E94E026FB01FF2707
:101CE000EF50FF4F8491E82FE719E59DC0011124C3
:101CF000B8010E94E02680919302689FB0011124F0
:101D00007A83BFCF0E94AD27209193022695215858
:101D10002C9DA0012D9D500D1124452F5527841772
:101D200095070CF0AECF82E0861588F40E94AD27AF
:101D3000B5010E94F42688830E94AD27209192026B
:101D40002695622F70E00E94F426280F29839E9C1E
:101D5000F0019F9CF00D1124EB52FE4F12828091F6
:101D60009302893C58F088EC9E9CF0019F9CF00DFA
:101D70001124EB52FE4F8483838383CF8431A0F7F9
:101D800084E1F2CFE0E9F2E080818E7F80836081A0
:101D90007181828193810E94EE0910920A022FEFD5
:101DA00080E792E0215080409040E1F700C00000C1
:101DB0000C944A0A60919002669570E04BE050E006
:101DC00084E191E00E94BD27892B19F481E0809382
:101DD0000A020E94BA1F90930302809302020895A0
:101DE0009091900290FF35C09170811128C092604F
:101DF00090939002662351F060919002709191024D
:101E000080919202909193020E94EE09609190025B
:101E1000669570E04BE050E084E191E00E94BD27C0
:101E2000892BA1F010920A0281E080930502409173
:101E3000930260919202809191020C94EA0B8B3292
:101E400010F09465D5CF880F982BD2CF0E94DA0E70
:101E5000EBCF0895682F90919002969581E0890FBD
:101E60008B3208F081E00C94F00E81E00C942A0F84
:101E7000682F9091900296958FEF890F09F48AE26E
:101E80000C94F00E81E00C94380F61E00C94F00E8D
:101E9000E0E9F2E080818160808386950C94450FB3
:101EA0008091900280FD0C94C20E0C94480F60E06B
:101EB0000C94F00E8091080281112EC00E94391EF0
:101EC000811104C00E94DE1E0E94000A0E94EA09DD
:101ED0006093900270939102809392029093930288
:101EE0006E7F61F40E94000A0E94EA0960939002EA
:101EF0007093910280939202909393020E94D4096E
:101F000010920A028091900280FF03C086950E9481
:101F1000570F81E08093080208950F931F93CF938A
:101F2000DF9380910A02882309F496C08091090208
:101F3000E0919002E695E81BE0930402823091F56F
:101F4000F0E0E351FF4FE491CE2FD0E00FE91AE02B
:101F500080910502882361F0109205020E94BA1F49
:101F600090930302809302021092070210920602DD
:101F70000E94BA1FE0910202F09103028E1B9F0B98
:101F80008F3F9F4708F068C0EC0FFD1FF0930302DE
:101F9000E093020282E092E0F801DF91CF911F917D
:101FA0000F910994863049F4F0E0E651FF4FE49137
:101FB000CE2FD0E003EB1AE0CBCF893051F4E69579
:101FC000F0E0E951FF4FE491CE2FD0E00DEE1BE0A1
:101FD000BFCF8F3051F4E695F0E0EC51FF4FE49124
:101FE000CE2FD0E00AE21CE0B3CF853149F4F0E017
:101FF000EF51FF4FE491CE2FD0E004EA1CE0A8CFD0
:10200000C8E2D0E007E11DE0883109F4A1CF8332B6
:1020100039F4EFEDF0E0C591D49103EC1AE098CFDC
:10202000C4EFD1E007EA1DE0843209F491CFC0ED9E
:10203000D7E00EEB19E0853209F08ACF8E2F63E0EE
:102040000E94C626E92FF0E0E452FF4FE491CE2F24
:10205000D0E004EE1DE07CCFDF91CF911F910F9176
:102060000895FA01811101C0FB010994CF93DF9318
:10207000C82FD62F0E94110A8C1740F00E94110A17
:102080008D1720F4DF91CF910C94350F8C2FDF91B9
:10209000CF910C94450F1F93CF93DF93EC01FB017D
:1020A0001281112309F4C2C00E94741D8272CD3CBA
:1020B000FCE5DF0709F4A0C008F044C0C73CECE52C
:1020C000DE0709F485C0F0F4C43C9CE5D90709F4A7
:1020D00075C048F4C33CDC4509F46CC0812FDF9126
:1020E000CF911F910895C53C9CE5D90709F46BC0B9
:1020F0004BEA5BE06EE97BE0C63CDC4579F70E9489
:1021000031105AC0CA3CFCE5DF0709F46BC068F423
:10211000C83CECE5DE0709F460C04AEB5BE069EC23
:102120007BE0C93CDC4559F3D9CFCB3C9CE5D907D2
:1021300009F45DC044E45AE06DE27AE0CC3CDC4551
:10214000F1F2CCCFC23DFCE5DF0709F464C098F49E
:10215000CF3C9CE5D90709F458C008F452C0C03DF3
:10216000FCE5DF0709F454C0C13DDC4509F0B6CFFA
:102170006EE089E01CC0C53D9CE5D90709F451C05B
:1021800058F4C33DFCE5DF0709F448C0C43DDC4515
:1021900009F0A4CF88E136C0C63D9CE5D90709F413
:1021A00043C06AE285E2CE35DD4509F097CF0E9453
:1021B000361002C00E94500F10E090CF42E45FE062
:1021C00065E37FE09CCF45E35FE062E47FE097CF8B
:1021D0004EE95BE06BEA7BE092CF49EC5BE06AEBB7
:1021E0007BE08DCF47EE5BE068ED7BE088CF48ED8C
:1021F0005BE067EE7BE083CF4DE25AE064E47AE097
:102200007ECF81E00E94450FD7CF65E082E0CFCF3F
:1022100068E086E0CCCF64E18FE0C9CF67E185E17B
:10222000C6CF62E289E1C3CF83E2ECCF11E056CFA3
:102230003F9A48B14F7758B15068EFB7F8949B0177
:10224000220F331F260F371F280F391F2817390772
:1022500041F4EFBF8FE594E00197F1F700C0000073
:102260000895DC016D91CD0178E058B9000000C0FF
:1022700067FF48B9660F000000C000C000C048B941
:1022800000C07A9591F7E2CF0F931F93CF93DF931E
:10229000C42FD22FFC0182818823C9F040930D0204
:1022A0000E94BA1F90930C0280930B0280E28C0F65
:1022B000883008F050C0C77081E001C0880FCA950F
:1022C000EAF7DF91CF911F910F910C945A1510915D
:1022D0000D02141335C080910B0290910C020E94E4
:1022E000D21F883C910560F5C0E2CD0F1D17B9F0F3
:1022F00080E2810F883040F4177081E001C0880FC0
:102300001A95EAF70E946115C83048F481E09D2FC4
:10231000977001C0880F9A95EAF70E945A15802F8E
:102320000E945215C830B8F4D77081E001C0880F00
:10233000DA95EAF7DF91CF911F910F910C94611517
:1023400080E28C0F883038F4C77081E001C0880FBC
:10235000CA95EAF7EFCFDF91CF911F910F910895C2
:102360000F939C01CB01243F4CE5340759F1A8F4AD
:10237000293DFCE53F0701F12A3D4CE53407D1F149
:10238000283D3C4591F406E221EE41EE68ED7CE506
:102390000E94441180E00F910895263FFCE53F071D
:1023A000E9F0B0F0273F3C45F9F0FC018281882339
:1023B00039F110920D02EFCF07E225EE45EE69EDFF
:1023C0007CE5E6CF06E221EE40EE64EF7CE5E0CF6F
:1023D00007E225EE44EE65EF7CE5DACF06E221EE7A
:1023E00042EE66EF7CE5D4CF07E225EE46EE67EFDE
:1023F0007CE5CECF08E221E045EE6AED7CE5C8CF72
:1024000081E0C9CFCF93DF93EC01FB018281882368
:1024100009F419C1C230FCE5DF07C0F1C6319CE503
:10242000D90730F09E012B5F3C452930310570F50E
:102430000E944C1E9093870280938602C031ECE587
:10244000DE0709F4CFC008F05BC0C8308CE5D807C0
:1024500009F4B6C088F5C430ECE5DE0709F4A8C07D
:10246000C0F4C2308CE5D80709F49CC08091860284
:102470008260C330DC4509F498C080918602909157
:1024800087020E945A1E0E94D31780E0DF91CF91ED
:102490000895809186028061C630ECE5DE0709F47C
:1024A00084C0809186028860C730DC4508F47DC016
:1024B00080918602806279C0CC308CE5D80709F41F
:1024C00089C070F4809186028C60CA30ECE5DE072A
:1024D00009F46BC008F478C0809186028E7F65C0D5
:1024E000CE308CE5D80709F479C0809186028B7FC5
:1024F000CF30DC4508F459C0809186028F7E55C0EC
:10250000CC3FECE5DE0709F457C030F5C3318CE56C
:10251000D80709F46FC078F4C131ECE5DE0709F49F
:1025200065C0C231DC4509F0A8CF0E94D317809165
:1025300086028F773AC0C5318CE5D80709F462C0AE
:1025400008F476C0809187028160CB3FDC4509F0BA
:1025500094CF8093870291CFC115FDE5DF0709F481
:102560004DC088F4809187028D7FCE3F9CE5D907CE
:1025700081F3809187028E7FCF3FDC4550F38091BD
:1025800087028360E6CFC230FDE5DF0709F459C05A
:1025900008F444C080E0C330DD4509F06ECF0E94EE
:1025A000E01E6BCF8091860281608093860265CFAA
:1025B000809186028460F9CF809187028260C9CFC2
:1025C000809186028064F1CF0E94D31780918602A9
:1025D0008068EBCF809186028D7FE7CF8091860265
:1025E000877FE3CF809186028F7DDFCF8091860247
:1025F0008F7BDBCF80918602837FD7CF809187024C
:102600008C7FA7CF8091860282FB992790F921E0E9
:10261000922790FB82F990FB83F9C7CF80918702C4
:10262000982F909591708E7F892B90FB81F991CF97
:102630000E94D31790918602892F97FB87F98058C3
:10264000B4CF81E0ACCF81E021CFCF93DF93EB011A
:1026500086319C4511F50E94741D9A81992399F049
:102660008A7A91E009F490E090930E02811109C0FA
:1026700089E20E942E1D0E94C41D80E0DF91CF914F
:10268000089585E3F6CF80910E02811104C089E29E
:102690000E94351DF0CF85E3FBCF81E0EFCF909313
:1026A0001402809313020895E0911302F091140232
:1026B000309721F00190F081E02D099480E0089599
:1026C000E0911302F0911402309721F00280F3811F
:1026D000E02D09940895E0911302F09114023097CF
:1026E00039F022E0DC012C930480F581E02D09947F
:1026F000089520911102309112022817390771F0C4
:102700009093120280931102E0911302F09114024F
:10271000309721F00680F781E02D099408952091EB
:102720000F02309110022817390771F090931002B0
:1027300080930F02E0911302F0911402309721F080
:102740000084F185E02D099408950E94C61F6093CE
:102750001E0270931F0280932002909321026093C7
:102760001A0270931B0280931C0290931D0208951D
:1027700085B7806885BF85B7806885BF089508954F
:1027800008950C94BF1308950C94C3130E94B813BA
:1027900081E39EE10E9416200E94C0130C94C11395
:1027A00081E008950C94D013089508950E94D413E5
:1027B0000C94D5130E94B11F0E94C2050E945A0FAB
:1027C0000C94C413BF92CF92DF92EF92FF920F93BB
:1027D0001F93CF93DF93CDB7DEB72A970FB6F89448
:1027E000DEBF0FBECDBF0E94ED0581110E94A51373
:1027F00036E1C32E32E0D32E10E000E0B02E802F61
:102800000E949C05E82EF601F1906F01F81609F47C
:1028100057C080917A0281FD0E94A2058F2D8E25DE
:10282000F82FF170FF2E80FD44C081FD44C082FF6F
:1028300047C092E0D92E24E0F22E0E94D2138823C2
:1028400099F0DE82BF82EF2081E009F480E0888782
:102850000E94BA1F8160782F9A8789874E815F8195
:1028600068858A850E948714F801EA5EFD4F8081A1
:10287000F826F0820E948D0F0E940C080E945413CB
:1028800090911502891799F10E94541380931502B3
:102890002A960FB6F894DEBF0FBECDBFDF91CF9161
:1028A0001F910F91FF90EF90DF90CF90BF900C940D
:1028B0004003D12CC2CFDD24D39482E0F82EBDCFCB
:1028C0000F5F1F4F0430110509F098CF8FEF8983F8
:1028D0008A831B820E94BA1F8160782F9D838C831C
:1028E00049815A816B818D810E948714C3CF2A96BA
:1028F0000FB6F894DEBF0FBECDBFDF91CF911F9111
:102900000F91FF90EF90DF90CF90BF900895DF92EE
:10291000EF92FF920F931F93CF93DF93CDB7DEB764
:102920002B970FB6F894DEBF0FBECDBF7A878B878B
:10293000F42E052F162FE72ED82E61110E94941D1C
:102940001E821D827E2DEC82DD824F2D502F612F45
:102950008D2D9E812B960FB6F894DEBF0FBECDBF96
:10296000DF91CF911F910F91FF90EF90DF900C942A
:10297000491AFC01808191810C94001DCF93C82FCE
:10298000882309F447C08CEF8C0F813AA0F46C2F98
:1029900080911F01909120010E94F71E882329F049
:1029A0008C2F0E94351D0E94C41D8C2F0E942E1D4D
:1029B000CF910C94C41D80E28C0F883048F4C7700E
:1029C00081E001C0880FCA95EAF70E94771DF0CF19
:1029D000EBE5EC0FE33040F4F0E0E354FE4F808190
:1029E00090E0CF910C947913E8E5EC0FE73150F4C7
:1029F000F0E0EE0FFF1FE157FE4F80819181CF91F4
:102A00000C948F13CD3E30F08C2F0E941E07CF9177
:102A10000C94F107CF910895882361F19CEF980FF2
:102A2000913A20F40E94351D0C94C41D90E2980F39
:102A3000983050F4877091E001C0990F8A95EAF7B9
:102A4000892F0E947D1DF0CF9BE5980F933020F4D5
:102A500090E080E00C94791398E5980F973120F47A
:102A600090E080E00C948F138D3E20F00E94780758
:102A70000C94F10708951F93CF93DF93182FEB0168
:102A80000E94BE14209731F4812FDF91CF911F91C6
:102A90000C940C158FE99FE00197F1F700C000003E
:102AA0002197F0CF70E060E0893311F460E570E0C9
:102AB0000C943B15882321F00E94771D0C94C41DB3
:102AC0000895882321F00E947D1D0C94C41D089553
:102AD000BF92CF92DF92EF92FF920F931F93CF930B
:102AE000DF936C01D62FC72FFC011281058102955F
:102AF0000F700E944C1DE82E8823A1F0E12E1123B7
:102B000089F08C2F807F803429F080E28D0FE12CBA
:102B1000883040F082E00E94151E0E944C1D91E01A
:102B2000E82EE926BC2EB2949FE0B922EB2DF0E00E
:102B3000ED5CF74D0C942A270C2F0F70C07F11F01D
:102B40000295007F1123A9F0002359F080E28D0F38
:102B5000883010F0D11109C0802F0E94771D0E948B
:102B6000C41D8D2F0E94BE1414C0802F0E94871D8B
:102B7000F6CF8D2F0E940C15002359F080E28D0FA7
:102B8000883010F0D1112CC0802F0E947D1D0E9432
:102B9000C41D2B2D2850330B2430310520F40E9406
:102BA00054130E944003EE2009F49EC10E94481D68
:102BB00080FD9AC1F60112820E94421D0E94CD1B27
:102BC000C6010E9495170E94421DDF91CF911F916F
:102BD0000F91FF90EF90DF90CF90BF900C94EE1B81
:102BE000802F0E948D1DD3CFFC2FFF70FF2EC07F42
:102BF000C03219F0F29480EFF822DD2369F0D13071
:102C000049F1112391F1002351F1F601858180FFF3
:102C1000A8CF8F70858323C0112381F0011106C0D6
:102C20000E94A71D8F290E945A15B3CF0130C1F70A
:102C30000E94A71D8F290E94AD1DABCF011106C0B8
:102C40000E94BA1D8F2D0E946115A3CF013009F497
:102C5000A0CFF6CF112329F0063008F09ACF8F2DA0
:102C6000E2CF053008F095CFEDCF002359F3D933EB
:102C700049F4FFEF27EE33E0F15020403040E1F718
:102C800000C000008D2F0E940C1583CF8C2F8695DD
:102C90008695837069F0813009F07BCF8D2F9C2F52
:102CA0009370111102C090E080E00E948F1371CFE9
:102CB0008D2F9C2F9370111102C090E080E00E9434
:102CC000791367CF8D2F112329F00E941E070E94D0
:102CD000F1075FCF0E947807FACF8C2F837009F03D
:102CE00041C0111156CF4D2F429546954770440F64
:102CF000440F0D2F0F7010E030E020E0042E04C0D0
:102D0000000F111F221F331F0A94D2F760E070E0FA
:102D1000CB01D4FF0FC06FE070E080E090E004C012
:102D2000660F771F881F991F4A95D2F76095709597
:102D300080959095C695C695C370602B712B822B9C
:102D4000932BC23049F058F4C13019F00E947F1B18
:102D500020CF0E946D1B1DCF0E94911B1ACF0E9495
:102D60006B1B17CF8695112311F08C2F8170882350
:102D700009F40FCF4D2F429546954770440F440FED
:102D80000D2F0F7010E030E020E0042E04C0000F83
:102D9000111F221F331F0A94D2F760E070E0CB01AD
:102DA000D4FF0FC06FE070E080E090E004C0660FD9
:102DB000771F881F991F4A95D2F760957095809567
:102DC0009095C695C695C370602B712B822B932B63
:102DD000C23049F058F4C13019F00E94441CD9CED9
:102DE0000E94321CD6CE0E94561CD3CE0E94A71B36
:102DF000D0CECF70112329F08C2F0E94CD1B8D2FA8
:102E000012CF8D2F0E9461158C2F0E94EE1BC1CE18
:102E1000D23F89F160F4D03FC9F0D13F29F11123AD
:102E200009F442C001119DCE8C2F8F7121C0D33F78
:102E300039F1D43FA1F7112369F1CF718C2F0E9492
:102E4000CD1B63E08C2F0E94FA1DA3CE112341F00D
:102E5000053008F09ECE8C2F8F710E94111C99CEE8
:102E6000063008F096CEF7CF8C2F8F71112369F2C0
:102E70000E94CD1B8ECE8C2F8F711123C9F3C5CF2D
:102E8000112329F08C2F8F710E94B81B82CE0E94D3
:102E9000B31B7FCE81E00E94151E023008F479CE6C
:102EA00082E00E94151E75CE002359F0D93309F037
:102EB000E9CE8FEF97EEE3E081509040E040E1F7FC
:102EC000DFCE8C2F8F71A1CF4C2F4F706D2FC6018D
:102ED0000E9448030E94E31A5CCE4C2F4F706D2F66
:102EE000C6010E944B0355CEDF91CF911F910F91E8
:102EF000FF90EF90DF90CF90BF9008950F931F93B6
:102F0000CF93DF93EC01688179818A810E940A1D49
:102F10008C010E94681C0E946A1BB801CE01DF91DF
:102F2000CF911F910F910C946815CF93DF93EC0113
:102F30008B819C81892B29F08881998189238F3FFE
:102F400059F4DF91CF910895CE010E947E17CE01F2
:102F5000DF91CF910C94A802CE010E94CB02811187
:102F6000F3CF0E944C1D882361F38A81882349F3A3
:102F700082E0DF91CF910C94151E90E080E00E94DA
:102F8000791390E080E00E948F130E94941D0E94AC
:102F9000A41D0E94C41D0E9418090C94F1070E94F0
:102FA0003C1D0C94BD170E94841D0C94CF17E92F73
:102FB000E295EF70E250EE3070F4F0E0ED5BF74D2B
:102FC0000C942A27803F19F020F4883E20F481E0F9
:102FD0000895843FE1F380E00895883EC0F3813F87
:102FE000D1F7F5CF93FB882780F908950E94001D43
:102FF0000C94D717CF93DF9300D000D00F92CDB7AA
:10300000DEB70F900F900F900F900F90DF91CF9140
:103010000895CF93DF9300D000D000D0CDB7DEB7B6
:1030200026960FB6F894DEBF0FBECDBFDF91CF91CD
:1030300008951F93CF93DF93C091230216E08091F0
:1030400024028C1304C0DF91CF911F910895D0E02A
:103050001C9FF0011D9FF00D1124EB5DFD4F408181
:10306000518162817381848195810E940918219622
:10307000C770E5CF409155025091560260915702BA
:10308000709158028091590290915A020C9409183B
:103090001F93CF93DF9380915A02807FA9F4809190
:1030A0005702882389F080912302C0912402609105
:1030B000550270915602A0915802B0915902D62F34
:1030C000D72316E0C81304C0DF91CF911F91089554
:1030D00090E0109711F0DF3F19F401968770F2CF5E
:1030E000189F9001199F300D1124F901EB5DFD4FE0
:1030F00041814713F2CF40814613EFCF4281411106
:10310000ECCF438154814A1B5B0B483C510528F7A7
:1031100080915A028F70806180935A02F901E65DB6
:10312000FD4F80818F708061808385E592E00E94F1
:103130009517DF91CF911F910C941918AF92BF9200
:10314000CF92DF92EF92FF920F931F93CF93DF9373
:10315000CDB7DEB761970FB6F894DEBF0FBECDBF17
:103160008C0185E0F801DE011D9601900D928A9593
:10317000E1F7F80140815181E28085E5C82E82E0C7
:10318000D82E60915802709159026115710509F4A9
:1031900061C19091550220915602892F82238F3F61
:1031A00009F458C1A380B480F0905702F501E61BE2
:1031B000F70BFF2009F4FCC080915A02382F307FB2
:1031C000E83CF10508F0B2C0311179C0FE2C25139E
:1031D00023C0941321C0E1101FC08F7080618093C1
:1031E0005A020E943A18C6010E94951780915A020D
:1031F000F80185838F2D61960FB6F894DEBF0FBE60
:10320000CDBFDF91CF911F910F91FF90EF90DF9095
:10321000CF90BF90AF900895AB2829F0842F8523DD
:103220008F3F09F033C180E0F82FF170DF2E80FF6F
:103230003CC0809123022091240236E0821315C005
:103240004D875E878D859E850E94001D292F2295C2
:103250002F702230F0F0243018F59F70F1F0F80153
:103260009581907FD1F4D12C1EC090E0389FF00161
:10327000399FF00D1124EB5DFD4F6181651306C090
:103280006081641303C062816E110FC00196877064
:10329000D5CF9F7011F0882331F3805E883018F30A
:1032A000C8010E949517FD2CA5CFEE2009F4A2CFEE
:1032B00080915A02816080935A02F12C9BCF251392
:1032C00006C0941304C0F801EE2009F48DC04D87A8
:1032D0005E878D859E850E94F617882319F1EE2062
:1032E00009F180915A02803270F02091550230919C
:1032F000560238872F831986BB86AA868C87CE0113
:1033000007960E94951786E0F801A5E5B2E00190C6
:103310000D928A95E1F70E9448180E943A18FF24FE
:10332000F39468CFC8010E949517F9CF311113C0EB
:103330007A2DB98AA88A6E2D89890E94FA1785E5A7
:1033400092E00E94951786E0F60111928A95E9F7BE
:103350000E943A18B2CF25130FC094130DC0E1108C
:103360000BC0F8018583C8010E94951786E0F6011D
:1033700011928A95E9F73ECF4D875E878D859E85B0
:103380000E94F617882371F2EE2061F280915A02B2
:10339000803208F4B8CF20915502309156023A831A
:1033A00029831B82BD82AC828E83CE010196A9CF78
:1033B000E83CF10508F041C0FE2CEE2009F4B2CF44
:1033C00025132AC0941328C080915A0280FD1BC087
:1033D000982F907FC1F0F8018583903F31F0982FAE
:1033E000907F905F8F70892B8583C8010E9495170D
:1033F00086E0F801A5E5B2E001900D928A95E1F72B
:103400000E943A18F7CE86E0F801A5E5B2E00190F7
:103410000D928A95E1F7EECE4D875E878D859E856C
:103420000E94F61781116FCF80915A0281608093BC
:103430005A02C8010E949517DDCE7A2DB98AA88A52
:103440006E2D89890E94FA1786E0F60111928A95FD
:10345000E9F7D6CFEE2009F465CF4D875E878D85DD
:103460009E850E94F617F82E882309F45BCF86E02C
:10347000F801A5E5B2E001900D928A95E1F785E5A6
:1034800092E00E94B9140E944818BACF81E08E25BC
:10349000CBCE1F93CF93DF93CDB7DEB72C970FB66C
:1034A000F894DEBF0FBECDBF4F83588769877A87F8
:1034B0008B879C87CE0107960E949E18882369F00F
:1034C0008A859B85892B39F04F815885842F8523E8
:1034D0008F3F09F071C016E05FC086E0FE013796AD
:1034E000DE01119601900D928A95E1F78A859B8500
:1034F000892B89F38F81988589238F3F61F32091F0
:10350000240230E0C9010196877099274091230277
:103510004817190671F40E94D317109224021092D2
:10352000230286E0E5E5F2E0DF011D928A95E9F7E6
:10353000D2CF96E0929FD001939FB00D1124AB5D46
:10354000BD4FFE01319601900D929A95E1F780935F
:1035500024020E941918BFCF819FC00111248B5DE6
:103560009D4F0E949E188823E9F0E09123021E9F40
:10357000F0011124EB5DFD4F408151816281738127
:10358000848195810E9409188091230290E0019620
:1035900087709927809323028091230290912402BF
:1035A0008913DACF2C960FB6F894DEBF0FBECDBFCD
:1035B000DF91CF911F91089569857A858B859C85D0
:1035C0000E94091888CFEF92FF920F931F93CF9319
:1035D000DF938C01892B81F0F12CEE24E394E80138
:1035E0002196F8018491843770F4843008F05FC02C
:1035F0008130B1F08230A1F1DF91CF911F910F9115
:10360000FF90EF900895853709F44CC008F43DC051
:103610009CE7980F903780F78F770E940C1549C070
:103620000E5F1F4FFE01849190E2980F983060F476
:103630008770FE2D01C0FF0F8A95EAF78F2F0E9439
:10364000971D0E94C41D02C00E94BE148F2D815080
:1036500030F2EFE9FFE03197F1F700C00000F7CF5B
:103660000E5F1F4FFE01849190E2980F983050F446
:103670008770FE2D01C0FF0F8A95EAF78F2F0E94F9
:103680009D1DDFCF0E940C15E1CF0E5F1F4FFE0185
:10369000C491C150D8F28FE99FE00197F1F700C0C3
:1036A0000000F7CF0E5F1F4FFE01F490CFCF0E94B6
:1036B000BE148E01CBCF08950C945B1B0E945C1B43
:1036C0006093690270936A0280936B0290936C021C
:1036D0000C94BD1708950C945E1B0F931F930091DB
:1036E000690210916A0220916B0230916C02602B8A
:1036F000712B822B932B1F910F910C945E1B0F93B8
:103700001F930091690210916A0220916B0230911F
:103710006C0260237123822393231F910F910C94D9
:103720005E1B0F931F930091690210916A02209112
:103730006B0230916C0260277127822793271F91BB
:103740000F910C945E1B0C945B1B0C94A31B0E94AA
:10375000A51B609365027093660280936702909345
:1037600068020C94BD1760E070E0CB010C94A71BBD
:103770000F931F9341E050E060E070E08A019B01ED
:1037800004C0000F111F221F331F8A95D2F7C901F1
:10379000B8011F910F910C94A71B0F931F9341E049
:1037A00050E060E070E004C0440F551F661F771FB3
:1037B0008A95D2F78091650290916602A091670286
:1037C000B09168028A019B01082B192B2A2B3B2BF5
:1037D000C901B8011F910F910C94A71B0F931F9360
:1037E00041E050E060E070E004C0440F551F661FE8
:1037F000771F8A95D2F7CB01BA01609570958095B5
:1038000090950091650210916602209167023091B7
:10381000680260237123822393231F910F910C94DC
:10382000A71B0F931F9341E050E060E070E004C0DD
:10383000440F551F661F771F8A95D2F78091650246
:1038400090916602A0916702B09168028A019B0183
:10385000082719272A273B27C901B8011F910F9173
:103860000C94A71B0F931F930091650210916602A1
:103870002091670230916802602B712B822B932B71
:103880001F910F910C94A71B0F931F93009165023A
:1038900010916602209167023091680260237123C3
:1038A000822393231F910F910C94A71B0F931F93B7
:1038B00000916502109166022091670230916802C2
:1038C00060277127822793271F910F910C94A71BC4
:1038D0000895E92FEE0F9E0F890F982F977041E002
:1038E00001C0440F9A95EAF786958695869595E0EE
:1038F000899FF0011124E55AFD4F30E020E070E08F
:103900005191DF011197CB01022E02C09695879548
:103910000A94E2F7817081958527842385278C930B
:103920002F5F3F4F2530310559F70895E92FEE0FEE
:103930009E0F890F982F977086958695869525E01E
:10394000829FF0011124E55AFD4F50E040E080E0F5
:10395000219130E0092E02C0369527950A94E2F7AE
:1039600021703327042E01C0220F0A94EAF7822B1C
:103970004F5F5F4F4530510559F70895BF92CF9281
:10398000DF92EF92FF920F931F93CF93DF938C01FF
:10399000C0906502D0906602E0906702F0906802E5
:1039A0008091690290916A02A0916B02B0916C02C1
:1039B000C82AD92AEA2AFB2ACFE1D0E0BC2ED701B7
:1039C000C6010C2E04C0B695A795979587950A94C5
:1039D000D2F780FD0EC0219788F7B12C8B2DDF9197
:1039E000CF911F910F91FF90EF90DF90CF90BF90FC
:1039F0000895B8018C2F0E946803019761F3EECF00
:103A0000CF93DF93EC010E94BE1CBE01DF91CF91EA
:103A10000C9468031F93CF93DF93EB0190912202E4
:103A2000992331F0CB01DF91CF911F910C94001DB0
:103A3000882379F0CB010E94BE1C182F682FCE017D
:103A40000E94691CBE01812FDF91CF911F910C94C0
:103A50006803CB010E94961C182FF4CF682F809129
:103A60001F01909120010C942D1F682F80911F0140
:103A7000909120010C942F1F80911F0190912001A3
:103A80000C94311F80916D028595859585950895DB
:103A900080916D028770089590916D02977081E01A
:103AA00009F480E008959091870292FB222720F983
:103AB000281751F080FB92F990938702809186023B
:103AC000909187020C945A1E08958091870282FB80
:103AD000882780F991E089270C94531D81E00C948C
:103AE000531D80E00C94531D8091790208959091AC
:103AF0007902892B809379020895809590917902BB
:103B000098239093790208951092790208959091E4
:103B10007802892B8093780208958095909178029D
:103B200098239093780208951092780208959091C6
:103B30007702892B80937702089580959091770280
:103B400098239093770208951092770208958091B8
:103B50006E02089508950C94AA1D9091870292FD1B
:103B600008C090916E02981721F080936E020C9419
:103B7000AB1D089580916E02882329F010926E0289
:103B800080E00C94AB1D0895E0911F01F09120019D
:103B9000809179028083E0911F01F0912001808162
:103BA00090917802892B8083E0911F01F091200190
:103BB000808190917702892B808390916E02992366
:103BC00081F0E0911F01F09120018081892B808399
:103BD00080911F01909120010E94E51E81110E9499
:103BE000BA1D80911F01909120010C9460130895DB
:103BF0000C94F71D9091870292FD10C098E0899F68
:103C000090011124622B60936D020E94CD1B809164
:103C10006D028595859585950C94F81D0C94CD1BAA
:103C200010926D0280E00C94F81D90916D028095C9
:103C3000892380936D02282F277039F4282F082EAE
:103C4000000C330B9217130621F49091870292FF18
:103C500007C08595859585950E94EE1B0C94101ED6
:103C6000089580E008956FEF7FEF90E080E00C947E
:103C7000FC2790E080E00E94D82721E08A3E9E4FFA
:103C800009F020E0822F089582E090E00C94CA278A
:103C900083E090E00C94CA27CF9384E090E00E94E8
:103CA000CA27C82F82E290E00E94CA27982F8C2F43
:103CB000CF910895CF93C92F682F84E090E00E94A0
:103CC000DE276C2F82E290E0CF910C94DE27AB01CF
:103CD000BC018FE090E00C94F027AB01BC0183E1C4
:103CE00090E00C94F02760E070E0CB010C946D1E26
:103CF00060E070E0CB010E94671E0C94731E6AEEB8
:103D00007EEF90E080E00E94FC2760E082E090E09F
:103D10000E94DE2760E083E090E00E94DE271092A0
:103D2000690210926A0210926B0210926C0260E0BB
:103D300084E090E00E94DE2760E082E290E00E9452
:103D4000DE2760E085E090E00E94DE2760E086E00C
:103D500090E00E94DE276FEF87E090E00E94DE2770
:103D600040E050E0BA0188E090E00E94F02760E077
:103D70008DE090E00E94DE2740E050E0BA0188E14B
:103D800090E00E94F02760E087E190E00E94DE274B
:103D900040E050E0BA018CE190E00E94F02770E032
:103DA00060E080E290E00E94FC2740E050E0BA0131
:103DB00088E190E00E94F0270C94781E0C947F1EFE
:103DC000682F8EE090E00C94DE279C012E5F3F4F21
:103DD000AC01485F5F4F80E02417350709F4089570
:103DE000F90191919F019923B9F38F5FF5CF662374
:103DF00049F0FC01329608962191261729F0E81720
:103E0000F907D1F780E0089581E008959C01FC0155
:103E100032969FEF80E04191461751F09F3F19F491
:103E2000411101C0982F8F5F8630A9F79F3F09F499
:103E30000895290F311D97FD3A95F9016283089580
:103E4000FC01329608962191261303C0DF011197D9
:103E50001C92E817F907B9F708950C94061F0C9403
:103E6000201F029626E0FC0111922A95E9F7089599
:103E7000089508950C94391F8091B802843049F157
:103E80000E943A1F80E00E94400310927B0288E16A
:103E900090E020E40FB6F894A895809360000FBEE0
:103EA0002093600083B7817F846083BF83B7816084
:103EB00083BF7894889583B78E7F83BF0FB6F894BD
:103EC000A8958091600088618093600010926000E6
:103ED0000FBE08950895CF930E94381F0E94ED05EC
:103EE0000E946A1FC0E08C2F0E949C05811105C0B2
:103EF000CF5FC430C1F7CF91089581E0FCCF089522
:103F00000C947F1F0E94D3170E9454130E944003F9
:103F10000C94801F1F921FB61F9211248F939F93A2
:103F2000AF93BF9380917B02811113C08091B00247
:103F30009091B102A091B202B091B3024196A11D3D
:103F4000B11D8093B0029093B102A093B202B093DE
:103F5000B302BF91AF919F918F911F901FBE1F9091
:103F6000189582E084BD93E095BD9AEF97BD80934C
:103F70006E0008952FB7F8948091B0029091B1022D
:103F8000A091B202B091B3022FBF08952FB7F89459
:103F90006091B0027091B1028091B2029091B3022F
:103FA0002FBF08959C014FB7F8948091B002909173
:103FB000B102A091B202B091B3024FBF821B930B2A
:103FC000089578941F921FB61F9211248F939F9388
:103FD000AF93BF938091B0029091B102A091B202D1
:103FE000B091B3020196A11DB11D8093B0029093D0
:103FF000B102A093B202B093B302BF91AF919F916F
:104000008F911F901FBE1F90189587E797E7909399
:1040100001088093000888E19AE00FB6F894A8950B
:10402000809360000FBE90936000FFCF9093C1011A
:104030008093C0010895809184020895CF93DF9307
:1040400000D00F92CDB7DEB79091B802943019F539
:1040500089837B836A8382E08093E9008FEF90916C
:10406000E800815095FD06C095ED9A95F1F70000A6
:104070008111F5CF8091E80085FF0DC050E040E050
:1040800063E070E0CE0101960E9435228091E80045
:104090008E778093E8000F900F900F90DF91CF9173
:1040A0000895BC0184E00C941E20BC0183E00C94B4
:1040B0001E209C0182E08093E9009FEF8091E80040
:1040C000915085FD06C085ED8A95F1F700009111AC
:1040D000F5CF8091E80085FF0CC050E040E066E03D
:1040E00070E0C9010E9435228091E8008E778093AC
:1040F000E8000895CF93DF93EC0181E08093E9001D
:104100008FEF9091E800815095FD06C095ED9A954E
:10411000F1F700008111F5CF8091E80085FF14C010
:1041200050E040E068E070E0CE010E9435228091CE
:10413000E8008E778093E80088E0FE01ACE7B2E00B
:1041400001900D928A95E1F7DF91CF9108958091CA
:10415000B702811109C00E94C5230E9422248091C8
:10416000E20084608093E20008951092B7020895FF
:1041700008950895089542E061EC81E00E94412392
:1041800042E261EC82E00C9441238091BA028330D8
:1041900009F45FC030F48130C1F1823009F49BC072
:1041A00008958A3009F487C08B3009F46DC08930D6
:1041B00009F04EC08091B902813209F049C0809166
:1041C000BD029091BE02029708F042C08091E800C3
:1041D000877F8093E8008091E80082FF35C090914E
:1041E000F3008091F200029729F48091F1008B7F17
:1041F000813021F48091F100809384028091E80065
:104200008B778093E8000C9475238091B902813AF2
:10421000F9F48091E800877F8093E8008091BD02E7
:104220009091BE02892B61F468E08CE792E070E027
:104230000E9484228091E8008B778093E8000895A3
:1042400060E090E080E0F3CF8091B8028111C3CFAD
:1042500008958091B902813AD9F78091BD02909179
:10426000BE02892BA9F78091E800877F8093E80040
:104270008091E80080FFFCCF80912B018093F100BA
:104280008091E8008E77BDCF8091B902813201F72D
:104290008091BD029091BE02892BD1F68091E800F9
:1042A000877F8093E8000E9475238091BB028093F2
:1042B0002B010C94D3178091B902813249F6809179
:1042C000E800877F8093E8000E9475238091BC02FC
:1042D0008093850208958091B902813A09F0B8CFA0
:1042E0008091E800877F8093E8008091E80080FF5C
:1042F000FCCF80918502C2CF84B7877F84BF0FB681
:10430000F894A89580916000886180936000109275
:1043100060000FBE80E890E00FB6F89480936100D3
:10432000909361000FBE0E94C6130E94C5230E9495
:1043300022248091E20084608093E20078940E94BD
:10434000AB260E94DA1381E291E00E944F13809124
:10435000B802853099F00E94E2130E94D613F7CF7D
:104360000E943C1F8091B602882341F00E946B1F7F
:10437000882321F00E941F220E94D3178091B80247
:10438000853071F30E94821FE6CF0C94C721292F3C
:1043900033272330310519F168F42130310509F450
:1043A00044C02230310509F445C090E080E030E09F
:1043B00020E025C02132310549F122323105A9F72B
:1043C00080E490E024EF33E061157105C1F08BE7E4
:1043D00090E029E733E06130710589F0E6CF992755
:1043E0008130910581F0009729F00297F1F6E6EF10
:1043F000F2E002C0E8E2F3E0849190E09F01FA016C
:10440000318320830895E0E1F3E0F6CF89E090E086
:104410002EE333E06115710591F389E090E027E523
:1044200033E06130710559F3C0CF82E190E027E6B7
:1044300033E0E5CF8BE390E02CE233E0E0CF80E1A6
:1044400089BD82E189BD09B400FEFDCF8091D8000D
:104450008F7D8093D8008091E00082608093E0009F
:104460008091E00081FDFCCF0895AF92BF92CF9282
:10447000DF92FF920F931F93CF93DF936C01EB01B9
:104480008A010E949423F82E811123C00115110581
:1044900039F0F80180819181C81BD90BC80ED91E53
:1044A000B12CA12C2097A9F08091E80085FD22C0B5
:1044B0008091E8008E778093E80001151105A1F046
:1044C000F80180819181A80EB91EB182A08285E099
:1044D000F82E8F2DDF91CF911F910F91FF90DF90DC
:1044E000CF90BF90AF9008950E9494238823D1F27B
:1044F000F82EEFCFF60181916F018093F1002197A3
:10450000FFEFAF1ABF0ACECFFC018091BF0290919E
:10451000C00286179707A0F06115710529F49091E4
:10452000E8009E779093E80090E06115710551F4E2
:10453000911108C08091E80082FF34C080E00895A6
:10454000BC01F2CF8091B8028823C1F18530C1F15E
:104550008091E80083FD30C08091E80082FDEACFC1
:104560008091E80080FFE1CF8091F3002091F2007C
:10457000382F6115710519F02830310558F091E098
:104580002830310509F090E02091E8002E77209343
:10459000E800CBCF81918093F100615071092F5FCA
:1045A0003F4FE7CF8091B802882341F0853041F03A
:1045B0008091E80083FFBECF81E0089582E00895F6
:1045C00083E00895FC018091BF029091C00286179C
:1045D0009707A0F06115710529F48091E8008E77A6
:1045E0008093E80090E06115710551F4911108C0C5
:1045F0008091E80082FF35C080E00895BC01F2CFD1
:104600008091B8028823C9F18530C9F18091E80012
:1046100083FD31C08091E80082FDEACF8091E800FF
:1046200080FFE1CF8091F3002091F200382F6115D7
:10463000710519F02830310558F091E02830310526
:1046400009F090E08091E8008E778093E800CBCF6E
:1046500084918093F1003196615071092F5F3F4F33
:10466000E6CF8091B802882341F0853041F08091F7
:10467000E80083FFBDCF81E0089582E0089583E0E4
:104680000895982F973028F08F708093E90081E08B
:1046900008959093E900242F762F50E0981731F079
:1046A0007091EC002091ED005091F00021FD02C0CE
:1046B0009F5FE8CF3091EB003E7F3093EB0030916D
:1046C000ED003D7F3093ED003091EB003160309391
:1046D000EB007093EC002093ED005093F0002091DC
:1046E000EE0027FDE5CF80E008958091B90287FFB5
:1046F00013C08091E80082FF06C08091E8008B77AC
:104700008093E80004C08091B8028111F2CF08952F
:104710008091B8028823D9F38091E80080FFF8CF18
:104720008091E8008E77ECCF2091E4003091E50095
:1047300095E6A9012091EC00822F817020FF06C030
:104740008091E80080FF06C080E008952091E80095
:1047500022FD1AC08091B802882389F0853089F043
:104760008091EB0085FD0FC02091E4003091E500C1
:1047700042175307F9F29150E1F684E0089582E080
:10478000089583E0089581E008950E9433240E94F3
:104790003B24E0EEF0E0808181608083E8EDF0E092
:1047A00080818F77808319BCA7EDB0E08C918E7FDC
:1047B0008C9380818F7E80831092B70208950F932F
:1047C0001F93CF93DF930E9433240E943B24C8EDB4
:1047D000D0E088818F77888388818068888388810A
:1047E0008F7D888319BC1092B8021092B402109287
:1047F000B6021092B50200EE10E0F80180818B7FC6
:10480000808388818160888342E060E080E00E944C
:104810004123E1EEF0E080818E7F8083E2EEF0E0E4
:10482000808181608083808188608083F8018081BD
:104830008E7F8083888180618883DF91CF911F91F3
:104840000F910895E8EDF0E080818F7E8083E7EDA1
:10485000F0E080818160808384E082BF81E080938A
:10486000B7020C94DF23E8EDF0E080818E7F808337
:104870001092E20008951092DA001092E10008957B
:104880001F920F920FB60F9211242F933F934F93C5
:104890005F936F937F938F939F93AF93BF93EF93A8
:1048A000FF938091E10082FF0BC08091E20082FFC4
:1048B00007C08091E1008B7F8093E1000E94AA26CF
:1048C0008091DA0080FF19C08091D80080FF15C068
:1048D0008091DA008E7F8093DA008091D90080FF8A
:1048E00096C080E189BD82E189BD09B400FEFDCF9B
:1048F00081E08093B8020E94A7208091E10080FFB0
:1049000019C08091E20080FF15C08091E2008E7F87
:104910008093E2008091E20080618093E2008091C8
:10492000D80080628093D80019BC85E08093B802DB
:104930000E94B9208091E10084FF2BC08091E200A9
:1049400084FF27C080E189BD82E189BD89B5982FA8
:10495000917080FFFBCF8091D8008F7D8093D8002D
:104960008091E1008F7E8093E1008091E2008F7E54
:104970008093E2008091E20081608093E200809168
:10498000B402882309F449C084E08093B8020E94ED
:10499000BA208091E10083FF29C08091E20083FF6B
:1049A00025C08091E100877F8093E10082E08093C1
:1049B000B8021092B4028091E1008E7F8093E100F2
:1049C0008091E2008E7F8093E2008091E20080611E
:1049D0008093E20042E060E080E00E944123809109
:1049E000F00088608093F0000E94B820FF91EF9162
:1049F000BF91AF919F918F917F916F915F914F91F7
:104A00003F912F910F900FBE0F901F90189519BCDA
:104A10001092B8020E94B52070CF8091E30087FD0C
:104A200093E09093B802B3CF1F920F920FB60F92FC
:104A300011242F933F934F935F936F937F938F93A3
:104A40009F93AF93BF93CF93DF93EF93FF93D09157
:104A5000E900DF708091EC00C82FC17080FDC0E8D4
:104A60001092E9008091F000877F8093F0007894A5
:104A70000E9458251092E9008091F0008860809390
:104A8000F000CD2BCF70C093E900FF91EF91DF9143
:104A9000CF91BF91AF919F918F917F916F915F91D6
:104AA0004F913F912F910F900FBE0F901F9018952F
:104AB0001F93CF93DF93CDB7DEB7AA970FB6F894C5
:104AC000DEBF0FBECDBF89EB92E02091F100FC016B
:104AD0002193CF01F2E0813C9F07B9F70E94C520E6
:104AE0008091E80083FF1EC18091B9029091BA02C3
:104AF0009A3008F017C1E92FF0E0EF5AF74D0C9407
:104B00002A27803899F0823809F00CC18091BD02C3
:104B10008F70873008F006C18093E9008091EB0028
:104B200085FB882780F91092E90006C08091B502C4
:104B30009091B602911182609091E800977F9093D6
:104B4000E8008093F1001092F1008091E8008E77E8
:104B5000E5C0882309F4D3C0823009F0E3C0809116
:104B6000BB028111D6C08091BD028F702FEF280F3C
:104B7000263008F0D7C08093E9002091EB0020FF99
:104B8000C8C0933031F48091EB0080628093EB00D9
:104B9000C0C09091EB0090619093EB0021E030E079
:104BA00001C0220F8A95EAF72093EA001092EA00EA
:104BB0008091EB008860EACF8111B4C01091BB02F4
:104BC0001F778091E3008078812B8093E3008091B0
:104BD000E800877F8093E8000E9475238091E800B9
:104BE00080FFFCCF8091E30080688093E30082E047
:104BF000111183E08093B80295C08058823008F08C
:104C000091C08091BB029091BC028C3D23E0920741
:104C1000A1F583E08A838AE289834FB7F894DE01A5
:104C2000139620E03EE051E2E32FF0E0509357006E
:104C3000E49120FF03C0E295EF703F5FEF708E2F8D
:104C400090E0EA30C0F0C7968D939D932F5F24319A
:104C500059F74FBF8091E800877F8093E8006AE2B0
:104C600070E0CE0101960E9484228091E8008B774B
:104C70008093E80057C0C096E7CF6091BD02709165
:104C8000BE02AE014F5F5F4F0E94C521BC01892B60
:104C900009F448C09091E800977F9093E8008981DB
:104CA0009A810E94E222E1CF8038E1F58091E8000C
:104CB000877F8093E8008091B4028093F10045CF14
:104CC000811130C09091BB02923060F58091E80074
:104CD000877F8093E8009093B4020E9475238091AF
:104CE000B402882311F084E005C08091E30087FDC1
:104CF000FACF81E08093B8020E94BB2013C080915C
:104D0000BB02813079F481E0933009F080E0809338
:104D1000B6021092E9008091E800877F8093E80056
:104D20000E9475238091E80083FF0AC08091E8000B
:104D3000877F8093E8008091EB0080628093EB0096
:104D4000AA960FB6F894DEBF0FBECDBFDF91CF910C
:104D50001F9108950895CF938091B8028823A1F000
:104D6000C091E900CF709091EC00892F817090FD87
:104D700080E8C82B1092E9008091E80083FD0E9432
:104D80005825CF70C093E900CF910895991B79E021
:104D900004C0991F961708F0961B881F7A95C9F7CB
:104DA0008095089587FB082E062687FD819567FD6F
:104DB00061950E94C6260EF4919507FC8195089591
:104DC000AA1BBB1B51E107C0AA1FBB1FA617B70731
:104DD00010F0A61BB70B881F991F5A95A9F780954D
:104DE0009095BC01CD01089597FB072E16F4009411
:104DF00007D077FD09D00E94E02607FC05D03EF4DD
:104E0000909581959F4F0895709561957F4F089576
:104E1000A1E21A2EAA1BBB1BFD010DC0AA1FBB1FBE
:104E2000EE1FFF1FA217B307E407F50720F0A21B30
:104E3000B30BE40BF50B661F771F881F991F1A949D
:104E400069F760957095809590959B01AC01BD01C7
:104E5000CF010895EE0FFF1F0590F491E02D099406
:104E60000E943827332312F48A1B9B0B0C9449278A
:104E7000A29FB001B39FC001A39F700D811D11249B
:104E8000911DB29F700D811D1124911D08950E94E6
:104E90003827B7FF0895821B930B08950E94382787
:104EA000A59F900DB49F900DA49F800D911D11247E
:104EB0000895B7FF0C944E270E944E27821B930B38
:104EC00008958F929F92AF92BF92CF92DF92EF920E
:104ED000FF92CF93DF93EC01688179818A819B8176
:104EE000611571058105910521F464E279ED8BE589
:104EF00097E02DE133EF41E050E00E941228490194
:104F00005A019B01AC01A7EAB1E40E944E276B0154
:104F10007C01ACEEB4EFA50194010E945C27DC019A
:104F2000CB018C0D9D1DAE1DBF1DB7FF03C00197AA
:104F3000A109B04888839983AA83BB839F77DF91B7
:104F4000CF91FF90EF90DF90CF90BF90AF909F9068
:104F50008F9008950E946127089580E091E00E945B
:104F600061270895B0E0A0E08093000190930101D3
:104F7000A0930201B09303010895FC0141505040F9
:104F800030F001900616D1F73197CF0108958827A8
:104F900099270895F999FECF92BD81BDF89A992776
:104FA00080B50895A6E1B0E044E050E00C940428F8
:104FB000A8E1B0E042E050E00C940428262FF999D3
:104FC000FECF92BD81BDF89A019700B4021639F068
:104FD0001FBA20BD0FB6F894FA9AF99A0FBE089539
:104FE0000396272F0E94DF270E94DE27252F0E948D
:104FF000DF27242F0C94DF270196272F0E94DF271D
:105000000C94DE27DC01CB01FC01F999FECF06C030
:10501000F2BDE1BDF89A319600B40D924150504076
:10502000B8F70895052E97FB1EF400940E942928D6
:1050300057FD07D00E94082707FC03D04EF40C94BC
:10504000292850954095309521953F4F4F4F5F4F00
:10505000089590958095709561957F4F8F4F9F4FE4
:105060000895F894FFCF9C159C15F415F415461679
:105070006216C915C9156D16F916081708176417B1
:10508000C915C9156D17E217E217EB17EB17ED17E6
:10509000EB17EB17EB17E217E217F217EB17EB170B
:1050A000F2178125A9259226A9259226DC25FD2522
:0650B00092265426602642
:1050B600010000002808641E140A321E01010200C5
:1050C6000900090901191A1B1C1D1E1F2021226F28
:1050D600021B207A2059205520512001E200E900C8
:1050E600EA00B500B600B700CD008301CC008A0106
:1050F600920194012102230224022502260227029C
:105106002A02B300B4006F007000818283C2F1F0FE
:10511600F4F5F6660001020202020606060909090E
:105126000909090F0F0F0F0F0F1515151819191962
:10513600191919191919192324252525252525E2B3
:1051460000E900EA00B500B600B700CD008301CC47
:10515600008A0192019401210223022402250226DB
:105166000227022A02B300B4006F00700081828316
:00000001FF
